{
  "contractName": "ProfessorRating",
  "abi": [
    {
      "anonymous": false,
      "inputs": [
        {
          "indexed": true,
          "internalType": "address",
          "name": "student",
          "type": "address"
        },
        {
          "indexed": true,
          "internalType": "uint256",
          "name": "professorId",
          "type": "uint256"
        },
        {
          "indexed": false,
          "internalType": "uint8",
          "name": "score",
          "type": "uint8"
        },
        {
          "indexed": false,
          "internalType": "string",
          "name": "comment",
          "type": "string"
        }
      ],
      "name": "RatingSubmitted",
      "type": "event"
    },
    {
      "inputs": [
        {
          "internalType": "address",
          "name": "",
          "type": "address"
        },
        {
          "internalType": "uint256",
          "name": "",
          "type": "uint256"
        }
      ],
      "name": "ratings",
      "outputs": [
        {
          "internalType": "uint8",
          "name": "score",
          "type": "uint8"
        },
        {
          "internalType": "string",
          "name": "comment",
          "type": "string"
        }
      ],
      "stateMutability": "view",
      "type": "function",
      "constant": true
    },
    {
      "inputs": [
        {
          "internalType": "uint256",
          "name": "professorId",
          "type": "uint256"
        },
        {
          "internalType": "uint8",
          "name": "score",
          "type": "uint8"
        },
        {
          "internalType": "string",
          "name": "comment",
          "type": "string"
        }
      ],
      "name": "submitRating",
      "outputs": [],
      "stateMutability": "nonpayable",
      "type": "function"
    },
    {
      "inputs": [
        {
          "internalType": "uint256",
          "name": "professorId",
          "type": "uint256"
        }
      ],
      "name": "getRating",
      "outputs": [
        {
          "internalType": "uint8",
          "name": "",
          "type": "uint8"
        },
        {
          "internalType": "string",
          "name": "",
          "type": "string"
        }
      ],
      "stateMutability": "view",
      "type": "function",
      "constant": true
    }
  ],
  "bytecode": "0x608060405234801561001057600080fd5b50610916806100206000396000f3fe608060405234801561001057600080fd5b50600436106100415760003560e01c80632a0e54bd14610046578063af648e1214610077578063b0ee0e9f14610093575b600080fd5b610060600480360381019061005b919061054e565b6100c4565b60405161006e9291906106c2565b60405180910390f35b610091600480360381019061008c91906105b3565b61018a565b005b6100ad60048036038101906100a8919061058a565b6102df565b6040516100bb9291906106c2565b60405180910390f35b6000602052816000526040600020602052806000526040600020600091509150508060000160009054906101000a900460ff1690806001018054610107906107fa565b80601f0160208091040260200160405190810160405280929190818152602001828054610133906107fa565b80156101805780601f1061015557610100808354040283529160200191610180565b820191906000526020600020905b81548152906001019060200180831161016357829003601f168201915b5050505050905082565b60018260ff16101580156101a2575060058260ff1611155b6101e1576040517f08c379a00000000000000000000000000000000000000000000000000000000081526004016101d8906106a2565b60405180910390fd5b60405180604001604052808360ff168152602001828152506000803373ffffffffffffffffffffffffffffffffffffffff1673ffffffffffffffffffffffffffffffffffffffff168152602001908152602001600020600085815260200190815260200160002060008201518160000160006101000a81548160ff021916908360ff1602179055506020820151816001019080519060200190610285929190610404565b50905050823373ffffffffffffffffffffffffffffffffffffffff167f022b095723ec44d8009f80d205c85ea61576f6c49a47e3e8e8581a56fc9e118a84846040516102d29291906106c2565b60405180910390a3505050565b6000606060008060003373ffffffffffffffffffffffffffffffffffffffff1673ffffffffffffffffffffffffffffffffffffffff16815260200190815260200160002060008581526020019081526020016000206040518060400160405290816000820160009054906101000a900460ff1660ff1660ff16815260200160018201805461036c906107fa565b80601f0160208091040260200160405190810160405280929190818152602001828054610398906107fa565b80156103e55780601f106103ba576101008083540402835291602001916103e5565b820191906000526020600020905b8154815290600101906020018083116103c857829003601f168201915b5050505050815250509050806000015181602001519250925050915091565b828054610410906107fa565b90600052602060002090601f0160209004810192826104325760008555610479565b82601f1061044b57805160ff1916838001178555610479565b82800160010185558215610479579182015b8281111561047857825182559160200191906001019061045d565b5b509050610486919061048a565b5090565b5b808211156104a357600081600090555060010161048b565b5090565b60006104ba6104b584610723565b6106f2565b9050828152602081018484840111156104d257600080fd5b6104dd8482856107b8565b509392505050565b6000813590506104f48161089b565b92915050565b600082601f83011261050b57600080fd5b813561051b8482602086016104a7565b91505092915050565b600081359050610533816108b2565b92915050565b600081359050610548816108c9565b92915050565b6000806040838503121561056157600080fd5b600061056f858286016104e5565b925050602061058085828601610524565b9150509250929050565b60006020828403121561059c57600080fd5b60006105aa84828501610524565b91505092915050565b6000806000606084860312156105c857600080fd5b60006105d686828701610524565b93505060206105e786828701610539565b925050604084013567ffffffffffffffff81111561060457600080fd5b610610868287016104fa565b9150509250925092565b600061062582610753565b61062f818561075e565b935061063f8185602086016107c7565b6106488161088a565b840191505092915050565b6000610660601e8361075e565b91507f53636f7265206d757374206265206265747765656e203120616e6420352e00006000830152602082019050919050565b61069c816107ab565b82525050565b600060208201905081810360008301526106bb81610653565b9050919050565b60006040820190506106d76000830185610693565b81810360208301526106e9818461061a565b90509392505050565b6000604051905081810181811067ffffffffffffffff821117156107195761071861085b565b5b8060405250919050565b600067ffffffffffffffff82111561073e5761073d61085b565b5b601f19601f8301169050602081019050919050565b600081519050919050565b600082825260208201905092915050565b600061077a82610781565b9050919050565b600073ffffffffffffffffffffffffffffffffffffffff82169050919050565b6000819050919050565b600060ff82169050919050565b82818337600083830152505050565b60005b838110156107e55780820151818401526020810190506107ca565b838111156107f4576000848401525b50505050565b6000600282049050600182168061081257607f821691505b602082108114156108265761082561082c565b5b50919050565b7f4e487b7100000000000000000000000000000000000000000000000000000000600052602260045260246000fd5b7f4e487b7100000000000000000000000000000000000000000000000000000000600052604160045260246000fd5b6000601f19601f8301169050919050565b6108a48161076f565b81146108af57600080fd5b50565b6108bb816107a1565b81146108c657600080fd5b50565b6108d2816107ab565b81146108dd57600080fd5b5056fea264697066735822122048df3b9d89a02a6cfc48a4eefc0f8c5155f649b71a283abc9f1f5c867b2f1c8164736f6c63430008000033",
  "immutableReferences": {},
  "source": "// SPDX-License-Identifier: MIT\r\npragma solidity ^0.8.0;\r\n\r\ncontract ProfessorRating {\r\n    struct Rating {\r\n        uint8 score;\r\n        string comment;\r\n    }\r\n\r\n    mapping(address => mapping(uint => Rating)) public ratings; // student address => (professor ID => Rating)\r\n\r\n    event RatingSubmitted(address indexed student, uint indexed professorId, uint8 score, string comment);\r\n\r\n    function submitRating(uint professorId, uint8 score, string memory comment) public {\r\n        require(score >= 1 && score <= 5, \"Score must be between 1 and 5.\");\r\n        ratings[msg.sender][professorId] = Rating(score, comment);\r\n        emit RatingSubmitted(msg.sender, professorId, score, comment);\r\n    }\r\n\r\n    function getRating(uint professorId) public view returns (uint8, string memory) {\r\n        Rating memory rating = ratings[msg.sender][professorId];\r\n        return (rating.score, rating.comment);\r\n    }\r\n}\r\n",
  "sourcePath": "C:\\Users\\SUMIT PRABHAKAR\\Desktop\\professor-rating-dapp\\contracts\\ProfessorRating.sol",
  "compiler": {
    "name": "solc",
    "version": "0.8.0+commit.c7dfd78e.Emscripten.clang"
  },
  "schemaVersion": "3.4.16",
  "updatedAt": "2024-10-01T01:22:19.852Z",
  "networkType": "ethereum",
  "devdoc": {
    "kind": "dev",
    "methods": {},
    "version": 1
  },
  "userdoc": {
    "kind": "user",
    "methods": {},
    "version": 1
  }
}